:100000000C9476000C949E000C949E000C94A0031B
:100010000C94A0030C94A0030C949E000C949E00DE
:100020000C949E000C949E000C949E000C94DF0295
:100030000C949E000C949E000C949E000C949E00C8
:100040000C94D6060C949E000C942A020C94040284
:100050000C949E000C949E000C949E000C949E00A8
:100060000C949E000C949E005A09A109A5097A09D6
:10007000BA09DA090B0A3C0A010B780A05A84CCD2B
:10008000B2D44EB93836A9020C50B9918688083CD2
:10009000A6AAAA2ABE000000803F000000080002B5
:1000A0000100000304070000000000000000000041
:1000B0000000250028002B0000000000240027007D
:1000C0002A000404040404040404020202020202DA
:1000D000030303030303010204081020408001020C
:1000E00004081020010204081020200711241FBE5C
:1000F000CFEFD8E0DEBFCDBF12E0A0E0B1E0E2E29A
:10010000F0E202C005900D92AA31B107D9F722E0C2
:10011000AAE1B2E001C01D92A03FB207E1F710E0F2
:10012000C6E7D0E004C02197FE010E940D0EC5373E
:10013000D107C9F70E944D070C940F100C940000D2
:10014000CF92DF92EF92FF920F931F93CF93DF93A3
:100150006C017A018B01C0E0D0E0CE15DF0581F0A3
:10016000D8016D918D01D601ED91FC910190F08146
:10017000E02DC6010995892B11F02196EECF7E0165
:10018000C701DF91CF911F910F91FF90EF90DF900A
:10019000CF900895FC01538D448D252F30E0842F9E
:1001A00090E0821B930B541710F0CF96089501979F
:1001B0000895FC01918D828D981761F0828DDF0189
:1001C000A80FB11D5D968C91928D9F5F9F73928F4A
:1001D00090E008958FEF9FEF0895FC01918D828D3F
:1001E000981731F0828DE80FF11D858D90E008950C
:1001F0008FEF9FEF0895FC01918D228D892F90E064
:10020000805C9F4F821B91098F739927089586E424
:1002100092E00E94FB0021E0892B09F420E0822F6C
:100220000895FC01848DDF01A80FB11DA35ABF4FB3
:100230002C91848D90E001968F739927848FA689E5
:10024000B7892C93A089B1898C91837080648C9339
:10025000938D848D981306C00288F389E02D8081E8
:100260008F7D80830895EF92FF920F931F93CF931A
:10027000DF93EC0181E0888F9B8D8C8D981305C0F6
:10028000E889F989808185FD26C0F62E0B8D10E066
:100290000F5F1F4F0F731127E02E8C8DE8120CC0DB
:1002A0000FB607FCFACFE889F989808185FFF5CF81
:1002B000CE010E941101F1CF8B8DFE01E80FF11DDF
:1002C000E35AFF4FF0829FB7F8940B8FEA89FB89BE
:1002D000808180620AC09FB7F894EE89FF896083AD
:1002E000E889F98980818370806480839FBF81E081
:1002F00090E0DF91CF911F910F91FF90EF900895C3
:10030000CF93DF93EC01888D8823C9F0EA89FB89BC
:10031000808185FD05C0A889B9898C9186FD0FC0B3
:100320000FB607FCF5CF808185FFF2CFA889B98988
:100330008C9185FFEDCFCE010E941101E7CFDF91B7
:10034000CF91089580E090E0892B29F00E94070169
:1003500081110C9400000895089580E090E00895C4
:100360000E94FA0F0F931F93CF93DF93EC018881C4
:100370009981009729F02A813B812617370788F455
:100380008B016F5F7F4F0E94340F009761F099835C
:1003900088831B830A832C813D81232B11F4FC016C
:1003A000108281E001C080E0DF91CF911F910F9119
:1003B0000895EF92FF920F931F93CF93DF93EC0179
:1003C0007B018A01BA010E94B20128813981811121
:1003D0000DC02115310519F0C9010E94AB0E19821B
:1003E00018821D821C821B821A8206C01D830C8308
:1003F000B701C9010E940810CE01DF91CF911F9172
:100400000F91FF90EF9008951F920F920FB60F92E9
:1004100011242F933F934F935F936F937F938F9309
:100420009F93AF93BF93EF93FF9386E492E00E9474
:100430001101FF91EF91BF91AF919F918F917F91AA
:100440006F915F914F913F912F910F900FBE0F9041
:100450001F9018951F920F920FB60F9211242F9391
:100460008F939F93EF93FF93E0915602F091570281
:100470008081E0915C02F0915D0282FD12C090816A
:1004800080915F028F5F8F7320916002821751F01D
:10049000E0915F02F0E0EA5BFD4F958F80935F0291
:1004A00001C08081FF91EF919F918F912F910F90CB
:1004B0000FBE0F901F901895CF92DF92EF92FF9290
:1004C000CF93DF93EC01603282E078070CF03DC0FF
:1004D00077FD06C0653B71052CF064EB70E002C04F
:1004E00060E070E0898128E830E06901C81AD1082D
:1004F00087FDD394CC0CDD1CCC0CDD1C0D2C000C2A
:10050000EE08FF088A8128E532E0281B310987FDC3
:100510003395220F331F220F331FC901330FAA0B4C
:10052000BB0B9C01AD012C193D094E095F09DB0194
:100530000E94590C24EB30E040E050E00E942F0C68
:10054000C20ED31EE41EF51EB60138813C3080F584
:10055000298188E890E0821B910927FD9395880FF7
:10056000991F880F991F6817790784F08A8148E5D9
:1005700052E0481B510987FD5395440F551F440F06
:10058000551FCB01461757070CF4CA010297880F75
:10059000991F4FB7F894232F30E0F901EE0FFF1F9A
:1005A0002E0F3F1FF901EE5DFD4F928381834FBFF8
:1005B000DF91CF91FF90EF90DF90CF9008951F9241
:1005C0000F920FB60F9211242F933F934F935F9387
:1005D0006F937F938F939F93AF93BF93EF93FF930B
:1005E00080911C0287FF05C0109285001092840044
:1005F0001BC020911C02022E000C330B80911D02A7
:1006000090E02817390784F480911C02082E000C12
:10061000990BFC01EE0FFF1F8E0F9F1FFC01EE5D7B
:10062000FD4F808186FD15C080911C028F5F8093F5
:100630001C0220911C02022E000C330B80911D0223
:1006400090E028173907C4F480911C028C3064F1C3
:1006500013C080911C02082E000C990BFC01EE0FB8
:10066000FF1F8E0F9F1FFC01EE5DFD4F808160E03C
:100670008F730E94F105D8CF8091840090918500FE
:10068000049680349C4918F480E49CE905C080916C
:10069000840090918500049690938900809388004F
:1006A0008FEF80931C023BC0209184003091850025
:1006B00080911C02082E000C990BFC01EE0FFF1F0D
:1006C0008E0F9F1FFC01EE5DFD4F81819281820F95
:1006D000931F909389008093880080911C02082EBC
:1006E000000C990BFC01EE0FFF1F8E0F9F1FFC01EA
:1006F000EE5DFD4F808186FF12C080911C02082EA6
:10070000000C990BFC01EE0FFF1F8E0F9F1FFC01C9
:10071000EE5DFD4F808161E08F730E94F105FF91D6
:10072000EF91BF91AF919F918F917F916F915F9169
:100730004F913F912F910F900FBE0F901F901895E2
:100740001F920F920FB60F9211240F900FBE0F90B1
:100750001F901895CF92DF92EF92FF920F931F9305
:10076000CF93DF93EC010E9478066BA37CA38DA34B
:100770009EA30F8D18A129A13AA16B017C01C01A7B
:10078000D10AE20AF30A97018601CD8CDE8CE12CB6
:10079000F12CC016D106E206F3060CF06FC06F8F85
:1007A00078A389A39AA32D893E894F89588D698999
:1007B0007A898B899C890E94CA0C698B7A8B8B8B76
:1007C0009C8B28A539A52130310509F457C029850E
:1007D0003A854B855C850E94CA0C0E94710D6B01A5
:1007E0007C016B817C8180E090E00E94100BA7016E
:1007F00096010E94710B6B017C016D817E8180E00E
:1008000090E00E94100B9B01AC01C701B6010E9451
:10081000CA0C6B017C0120E030E0A9010E946C0D44
:1008200020E030E040E05FE387FD05C0C701B6018E
:100830000E94CA0C04C0C701B6010E94C90C0E94E4
:10084000360D7E876D878FA1882329F0719561957C
:1008500071097E876D876D857E85665A7F4F8F858E
:100860009889680F791FCE01DF91CF911F910F9169
:10087000FF90EF90DF90CF900C945C02DF91CF91CE
:100880001F910F91FF90EF90DF90CF9008954F92BE
:100890005F926F927F928F929F92AF92BF92CF9210
:1008A000DF92EF92FF920F931F93CF93DF937C0120
:1008B0002901D8019B01CA01F701A801405E5F4FE1
:1008C0008D909D90AD90BD90E901699179919E01C7
:1008D000EC0109911991CE0116830583748363831A
:1008E0005086478281869286A386B486BA96A417DC
:1008F000B50731F70E9478060E94100BB62EA72E7E
:10090000982E892EC62ED72E082F192F052C000CB5
:1009100066087708C301B2010E94120B2B2D3A2DF5
:10092000492D582D0E94CA0C9B01AC01B601C8018B
:100930000E940B0B87FF13C0C0E0D0E0C7018C0FF3
:100940009D1F0E94AA03AA96C03581E0D807B1F77F
:100950000E9478060E94100B6B018C01DBCFDF91A7
:10096000CF911F910F91FF90EF90DF90CF90BF90AC
:10097000AF909F908F907F906F905F904F90089571
:10098000FC0127853089620F731F0C945C02CF93A2
:10099000DF93EC016AE570E00E94C0046AE570E054
:1009A000CE018A960E94C0046AE570E0CE018C5A9E
:1009B0009F4F0E94C0046AE570E0CE0182589F4FAD
:1009C0000E94C0046AE070E0CE0188559F4F0E94EB
:1009D000C0046AEA70E0CE018E529F4F0E94C004AC
:1009E00062E370E0CE0184509F4F0E94C00462E831
:1009F00070E0CE018A5D9E4F0E94C0046AE570E0FF
:100A0000CE01805B9E4FDF91CF910C94C0043FB725
:100A1000F8948091E8029091E902A091EA02B091E5
:100A2000EB0226B5A89B05C02F3F19F00196A11D2A
:100A3000B11D3FBFBA2FA92F982F8827820F911D74
:100A4000A11DB11DBC01CD0142E0660F771F881FBB
:100A5000991F4A95D1F7089542E050E067E172E0AE
:100A600086E492E00C94A000FC01448155816081F1
:100A7000718186E492E00E94A0000C942C05CF9333
:100A8000DF93EC012881822F90E0FC01EE0FFF1F25
:100A90008E0F9F1FFC01EE5DFD4F808186FD9EC085
:100AA0002C3008F069C09B013327F901EA52FF4F4F
:100AB0008491F901EE53FF4F2491222399F030E005
:100AC000220F331FF901E854FF4FA591B491F901AA
:100AD000E255FF4F259134919FB7F894EC91E82BA4
:100AE000EC939FBF8881E82FF0E09F01220F331F16
:100AF000E20FF31FEE5DFD4F6F739081907C692BC9
:100B0000608319821A826CE00E94010E9CE0899F2A
:100B1000B001112440E050E09B01240F351FF90182
:100B2000EE0FFF1F2E0F3F1FF901EE5DFD4F90816D
:100B300096FD16C04F5F5F4F4C30510569F781112C
:100B40000FC01092800082E0809381001092850097
:100B500010928400B19A80916F00826080936F0040
:100B6000E881F0E0CF01880F991FE80FF91FEE5DD3
:100B7000FD4F8081806480836AE570E0CE010E9431
:100B80005C028EE190E09E8F8D8F80ED97E09887DC
:100B90008F838DE290E09C838B831F8E18A219A215
:100BA0001AA2198A1A8A1B8A1C8A19861A861B8617
:100BB0001C861E821D8219A618A61FA280E090E046
:100BC000A4E8B2E4898F9A8FAB8FBC8F8AE198EF4B
:100BD000A2ECBDE38D8B9E8BAF8BB88FDF91CF9155
:100BE000089590E0FC01E656FF4F2491FC01EA5283
:100BF000FF4F3491FC01EE53FF4FE491EE2309F4D3
:100C00003CC0222339F1233091F038F42130A9F08F
:100C1000223001F584B58F7D12C0273091F0283045
:100C2000A1F02430B9F4809180008F7D03C08091C1
:100C300080008F77809380000DC084B58F7784BD4E
:100C400009C08091B0008F7703C08091B0008F7D84
:100C50008093B000F0E0EE0FFF1FE255FF4FA5912B
:100C6000B4919FB7F894611104C08C9130953823EA
:100C700002C0EC913E2B3C939FBF08958F929F92B0
:100C8000AF92BF92CF92DF92EF92FF926B017C0105
:100C90000E9407054B015C01C114D104E104F10479
:100CA000F1F00E940705DC01CB0188199909AA0916
:100CB000BB09883E9340A105B10570F321E0C21A3B
:100CC000D108E108F10888EE880E83E0981EA11C87
:100CD000B11CC114D104E104F10419F7DDCFFF9078
:100CE000EF90DF90CF90BF90AF909F908F9008953E
:100CF0002FB7F8946091E4027091E5028091E602CA
:100D00009091E7022FBF0895AF92BF92CF92DF92EA
:100D1000EF92FF920F931F93CF93DF93EC010E940A
:100D2000C704C05BDE4F1E821D828EE190E09C8373
:100D30008B8388EE93E098878F8319861A861B86AB
:100D40001C860E9478060E94100BD62EC72EB82E45
:100D5000A92EE62EF72E082F192F20E030E04AE7C3
:100D600055E46D2D7C2D8B2D9A2D0E94CA0C970178
:100D7000A8010E946C0D181654F4CE010E94AA031B
:100D80000E9478060E94100B7B018C01E6CF6AE579
:100D900070E0CE01DF91CF911F910F91FF90EF9006
:100DA000DF90CF90BF90AF900C94C0041F920F9231
:100DB0000FB60F9211242F933F938F939F93AF936E
:100DC000BF938091E4029091E502A091E602B09178
:100DD000E7023091E30223E0230F2D3720F4019640
:100DE000A11DB11D05C026E8230F0296A11DB11D4E
:100DF0002093E3028093E4029093E502A093E6023D
:100E0000B093E7028091E8029091E902A091EA0292
:100E1000B091EB020196A11DB11D8093E802909361
:100E2000E902A093EA02B093EB02BF91AF919F91C8
:100E30008F913F912F910F900FBE0F901F9018959B
:100E4000E6E4F2E01382128288EE93E0A0E0B0E0E4
:100E500084839583A683B7838AED91E09183808311
:100E600085EC90E09587848784EC90E0978786876F
:100E700080EC90E0918B808B81EC90E0938B828B67
:100E800082EC90E0958B848B86EC90E0978B868B40
:100E9000118E128E138E148E0895CF93DF93CDB7DB
:100EA000DEB7C254D1090FB6F894DEBF0FBECDBF76
:100EB000789484B5826084BD84B5816084BD85B535
:100EC000826085BD85B5816085BD80916E00816041
:100ED00080936E00109281008091810082608093E7
:100EE00081008091810081608093810080918000E9
:100EF0008160809380008091B10084608093B10014
:100F00008091B00081608093B00080917A0084600D
:100F100080937A0080917A00826080937A00809139
:100F20007A00816080937A0080917A008068809353
:100F30007A001092C1008AE791E00E94130E8C01A2
:100F40007C016C0186E8C81A8EEFD80A99249A941D
:100F500038EBA32E3BE0B32E80911D028C3090F431
:100F600091E0980F90931D02D7018C9390E0FC01C3
:100F7000EE0FFF1F8E0F9F1FFC01EE5DFD4FB28233
:100F8000A18202C0F7019082D7015F961D921D9247
:100F90001D921C9292970E947806F70163A374A396
:100FA00085A396A311A610A6108A1786FAE2EF0E63
:100FB000F11CEC14FD0481F664E070E0C8010E94AD
:100FC0003F0565E070E0C8018A960E943F05480130
:100FD00084E5880E911C66E070E0C4010E943F0524
:100FE00058019EE7A90EB11C67E070E0C5010E94A0
:100FF0003F056801A8EACA0ED11C62E070E0C60194
:101000000E943F057801B2EDEB0EF11C68E070E044
:10101000C7010E943F053801ECEF6E0E711C63E0C2
:1010200070E0C3010E943F052801FAED4F1AFEEF60
:101030005F0A69E070E0C2010E943F05180180EB81
:10104000281A8EEF380A6CE070E0C1010E943F055B
:10105000D80150961C921E921F9782E090E0DA967B
:101060009C938E93D9978AE090E0F401908B8787C8
:10107000D50150961C921E921F9789E190E0F601CF
:10108000908B878781EF9FEFD70150969C938E932B
:101090001F978EE090E0F301908B87878DE290E0C0
:1010A000D20150969C938E931F9784EF9FEFF1018E
:1010B000908B8787C8010E94C704C8010E948406DC
:1010C00010931F0200931E0281E090E00E94130E15
:1010D000E0915602F091570222E02083E091520203
:1010E000F09153021082E0915402F09155022FECDE
:1010F000208310925E02E0915A02F0915B0226E09A
:101100002083E0915802F0915902208120612083D0
:10111000E0915802F0915902208128602083E091EB
:101120005802F0915902208120682083E0915802F2
:10113000F091590220812F7D20839093210280938A
:10114000200268EE73E080E090E00E943E061A8282
:1011500019821C821B821E821D8248E150E062EFD0
:1011600071E0CE0101960E94D901CE0101960E9444
:10117000340589819A810E94AB0E6E01F1E2CF0E97
:10118000D11C8EE1882E912C009120021091210219
:1011900086E492E00E94FB00892B19F4EBE0F0E07A
:1011A0007CC0E9E1F2E0D801EC9386E492E00E9491
:1011B000FB00892B39F086E492E00E94D900D80127
:1011C0008C93F3CFF801B0801A8219821C821B82A3
:1011D0001E821D82B9A21AA2F60101900020E9F731
:1011E0003197AF014C195D09B601CE0101960E94FD
:1011F000D9011AA219A21CA21BA21EA21DA24BE079
:1012000050E06BE072E0C6010E94D9018D819E81A1
:10121000E980FA80E114F104C1F0009711F10DA109
:101220001EA1080F191FB801C6010E94B201882330
:1012300061F029A13AA18DA19EA1B701820F931F50
:101240000E9408101EA30DA30CC089A19AA10097AB
:1012500011F00E94AB0E1AA219A21EA21DA21CA27E
:101260001BA24DA15EA169A17AA186E492E00E9431
:10127000A0000E942C0589A19AA10E94AB0E898131
:101280009A810E94AB0EEFEBEB0DEA3008F086CFAF
:10129000F0E0E851FE4FE081F0E0E0901E02F090B7
:1012A0001F023197EA30F10508F0AFC1EC5CFF4F47
:1012B0000C940D0E80E1E6E0F1E0DE01D1960190A4
:1012C0000D928A95E1F780E1E6E1F1E0D601019027
:1012D0000D928A95E1F780E2E6E2F1E0DE011196F7
:1012E00001900D928A95E1F78E010F5F1F4F20EB61
:1012F00034E01FC080E1E6E4F1E0DE01D196019028
:101300000D928A95E1F780E1E6E1F1E0D6010190E6
:101310000D928A95E1F780E2E6E5F1E0DE011196B3
:1013200001900D928A95E1F78E010F5F1F4F28EE15
:1013300033E0A601BE016F5C7F4FC7010E944704E6
:1013400067C180E1E6E7F1E003C080E1E6E8F1E0B3
:10135000DE01D19601900D928A95E1F780E1E6E1F8
:10136000F1E0D60101900D928A95E1F780E2E6E284
:10137000F1E0D4CF80E1E6E9F1E0DE01D196019021
:101380000D928A95E1F780E1E6EAF1E0D60101905D
:101390000D928A95E1F780E2E6EBF1E0DE0111962D
:1013A00001900D928A95E1F78E010F5F1F4F2CEB94
:1013B00032E0BFCF6EE670E0C7010E94C0046CE867
:1013C00070E0C7018A960E94C0046AE570E0C70118
:1013D0008C5A9F4F0E94C0046AE570E0C701825892
:1013E0009F4F0E94C0046AE070E0C70188559F4F7C
:1013F0000E94C0046AEA70E0C7018E529F4F0E94AB
:10140000C00466E970E0C70184509F4F0E94C00489
:101410006AE570E061C068E270E0C7010E94C00444
:1014200066E470E0C7018A960E94C0046AE570E035
:10143000C7018C5A9F4F0E94C0046AE570E0C70143
:1014400082589F4F0E94C0046AE070E0C70188552F
:101450009F4F0E94C0046AEA70E0C7018E529F4FFE
:101460000E94C0046AE570E0C70184509F4F0E944B
:10147000C0046EE170E030C06AE570E0C7010E9410
:10148000C0046AE570E0C7018A960E94C0046AE55C
:1014900070E0C7018C5A9F4F0E94C0046AE570E05B
:1014A000C70182589F4F0E94C0046AE570E0C701DF
:1014B00088559F4F0E94C0046AE570E0C7018E52B4
:1014C0009F4F0E94C00468E270E0C70184509F4FA4
:1014D0000E94C0046CE870E0C7018A5D9E4F0E94C4
:1014E000C0046CE271E080E090E00E943E0690C093
:1014F000C7010E94C7048701005B1E4FD8011696E2
:101500001C921E92159714969C928E921397E8E562
:10151000F2E01896FC93EE93179719961D921D9280
:101520001D921C921C975701BCEFAB0EB11CF5012C
:1015300016821582948283828CE291E09087878361
:101540001186128613861486BAEDEB1ABEEFFB0ADB
:10155000F7011682158294828382908787838BEDB0
:101560009FE0A9E4B0E481879287A387B4870E94B3
:1015700078060E94100B562E472E382E292E662EE6
:10158000772E22968FAF229723969FAF239720E046
:1015900030E046E954E4652D742D832D922D0E9490
:1015A000CA0C930122964FAD229723965FAD2397E5
:1015B0000E946C0D1816ACF4C5010E94AA03C70165
:1015C0000E94AA03C8010E94AA030E9478060E94F2
:1015D000100B3B0122968FAF229723969FAF239744
:1015E000D6CF62E370E0C5010E94C00462E870E0FB
:1015F000C7010E94C0046AE570E0C8010E94C004EF
:1016000007C0C7010E94840603C0C7010E94C70427
:101610000E94A201B9CD0E944D0B08F481E008950B
:10162000E89409C097FB3EF490958095709561957C
:101630007F4F8F4F9F4F9923A9F0F92F96E9BB2732
:101640009395F695879577956795B795F111F8CFAE
:10165000FAF4BB0F11F460FF1BC06F5F7F4F8F4F19
:101660009F4F16C0882311F096E911C0772321F00F
:101670009EE8872F762F05C0662371F096E8862FA7
:1016800070E060E02AF09A95660F771F881FDAF7FE
:10169000880F9695879597F90895990F0008550F2B
:1016A000AA0BE0E8FEEF16161706E807F907C0F0E8
:1016B00012161306E407F50798F0621B730B840BF0
:1016C000950B39F40A2661F0232B242B252B21F4CA
:1016D00008950A2609F4A140A6958FEF811D811D6A
:1016E00008950E94840B0C94F50B0E94E70B38F0D0
:1016F0000E94EE0B20F0952311F00C94DE0B0C945D
:10170000E40B11240C94290C0E94060C70F3959F95
:10171000C1F3950F50E0551F629FF001729FBB27E8
:10172000F00DB11D639FAA27F00DB11DAA1F649F84
:101730006627B00DA11D661F829F2227B00DA11D37
:10174000621F739FB00DA11D621F839FA00D611DBD
:10175000221F749F3327A00D611D231F849F600DDE
:10176000211D822F762F6A2F11249F5750409AF007
:10177000F1F088234AF0EE0FFF1FBB1F661F771F93
:10178000881F91505040A9F79E3F510580F00C945E
:10179000DE0B0C94290C5F3FE4F3983ED4F386955E
:1017A00077956795B795F795E7959F5FC1F7FE2BFE
:1017B000880F911D9695879597F9089597F99F67DA
:1017C00080E870E060E008959FEF80EC08950024C9
:1017D0000A941616170618060906089500240A9496
:1017E00012161306140605060895092E0394000C1C
:1017F00011F4882352F0BB0F40F4BF2B11F460FFAB
:1018000004C06F5F7F4F8F4F9F4F089557FD9058D3
:10181000440F551F59F05F3F71F04795880F97FBB4
:10182000991F61F09F3F79F087950895121613066E
:101830001406551FF2CF4695F1DF08C0161617069D
:101840001806991FF1CF86957105610508940895D2
:10185000E894BB2766277727CB0197F90895052ED3
:1018600097FB1EF400940E94460C57FD07D00E947F
:10187000980C07FC03D04EF40C94460C5095409500
:10188000309521953F4F4F4F5F4F0895909580952C
:10189000709561957F4F8F4F9F4F08950E94BA0CAE
:1018A000A59F900DB49F900DA49F800D911D1124B4
:1018B0000895B7FF0C944E0C0E944E0C821B930BA4
:1018C00008952F923F924F925F926F927F928F92E4
:1018D0009F92AF92BF92CF92DF92EF92FF920F93BF
:1018E0001F93CF93DF93CDB7DEB7CA1BDB0B0FB6C9
:1018F000F894DEBF0FBECDBF09942A883988488886
:101900005F846E847D848C849B84AA84B984C8841B
:10191000DF80EE80FD800C811B81AA81B981CE0F12
:10192000D11D0FB6F894DEBF0FBECDBFED010895F7
:10193000A1E21A2EAA1BBB1BFD010DC0AA1FBB1FD3
:10194000EE1FFF1FA217B307E407F50720F0A21B45
:10195000B30BE40BF50B661F771F881F991F1A94B2
:1019600069F760957095809590959B01AC01BD01DC
:10197000CF010895A29FB001B39FC001A39F700D36
:10198000811D1124911DB29F700D811D1124911D87
:1019900008955058BB27AA270E94E10C0C94F50B20
:1019A0000E94E70B38F00E94EE0B20F039F49F3FC5
:1019B00019F426F40C94E40B0EF4E095E7FB0C9478
:1019C000DE0BE92F0E94060C58F3BA176207730763
:1019D0008407950720F079F4A6F50C94280C0EF4F2
:1019E000E0950B2EBA2FA02D0B01B90190010C012F
:1019F000CA01A0011124FF27591B99F0593F50F447
:101A0000503E68F11A16F040A22F232F342F44279E
:101A1000585FF3CF469537952795A795F040539596
:101A2000C9F77EF41F16BA0B620B730B840BBAF066
:101A30009150A1F0FF0FBB1F661F771F881FC2F7D1
:101A40000EC0BA0F621F731F841F48F487957795E5
:101A50006795B795F7959E3F08F0B0CF9395880F9F
:101A600008F09927EE0F9795879508950E943D0DF0
:101A70006894B1110C94290C08950E940E0C88F002
:101A80009F5798F0B92F9927B751B0F0E1F0660F42
:101A9000771F881F991F1AF0BA95C9F714C0B13083
:101AA00091F00E94280CB1E008950C94280C672F47
:101AB000782F8827B85F39F0B93FCCF386957795B2
:101AC0006795B395D9F73EF490958095709561959B
:101AD0007F4F8F4F9F4F08950E944D0B08F48FEF5B
:101AE00008959F930E947B0D0F9007FCEE5F0C946E
:101AF000A40D0C94E40B0E940E0CD8F3E894E0E0E3
:101B0000BB279F57F0F02AED3FE049EC06C0EE0FEF
:101B1000BB0F661F771F881F28F0B23A6207730752
:101B2000840728F0B25A620B730B840BE3959A95E5
:101B300072F7803830F49A95BB0F661F771F881FA5
:101B4000D2F790480C94BA0DEF93E0FF07C0A2EAD9
:101B50002AED3FE049EC5FEB0E94E10C0E94F50B9F
:101B60000F90039401FC9058ECE7F0E00C94C60D44
:101B70009F3F31F0915020F4879577956795B79501
:101B8000880F911D9695879597F908959F938F9348
:101B90007F936F93FF93EF939B01AC010E94710BB6
:101BA000EF91FF910E94DA0D2F913F914F915F913C
:101BB0000C94710BDF93CF931F930F93FF92EF92CF
:101BC000DF927B018C01689406C0DA2EEF010E943F
:101BD000840BFE01E894A59125913591459155918D
:101BE000A6F3EF010E94E10CFE019701A801DA942F
:101BF00069F7DF90EF90FF900F911F91CF91DF91E8
:101C00000895991B79E004C0991F961708F0961B58
:101C1000881F7A95C9F780950895EE0FFF1F0590EC
:101C2000F491E02D09940F931F93CF93DF938230AB
:101C3000910510F482E090E0E091EE02F091EF0265
:101C400020E030E0A0E0B0E0309719F14081518110
:101C50000281138148175907C8F08417950769F462
:101C6000109731F012960C93129713961C9327C07D
:101C70000093EE021093EF0222C02115310519F0F6
:101C80004217530718F49A01BD01EF01DF01F80173
:101C9000DBCF21153105F9F0281B390B2430310534
:101CA00080F48A819B816115710521F0FB0193838A
:101CB000828304C09093EF028093EE02FE0132967D
:101CC00044C0FE01E20FF31F81939193225031092A
:101CD000398328833AC02091EC023091ED02232B06
:101CE00041F420910201309103013093ED022093E1
:101CF000EC0220910001309101012115310541F4E0
:101D00002DB73EB74091040150910501241B350BBE
:101D1000E091EC02F091ED02E217F307A0F42E1B24
:101D20003F0B2817390778F0AC014E5F5F4F24173F
:101D3000350748F04E0F5F1F5093ED024093EC02C1
:101D40008193919302C0E0E0F0E0CF01DF91CF9169
:101D50001F910F910895CF93DF93009709F481C0ED
:101D6000FC01329713821282A091EE02B091EF0231
:101D7000109781F420813181820F931F2091EC0212
:101D80003091ED022817390751F5F093ED02E093F9
:101D9000EC0267C0ED0120E030E0CE17DF0740F431
:101DA0004A815B819E0141155105F1F0EA01F5CFB1
:101DB000D383C28340815181840F951FC817D907EF
:101DC00059F488819981840F951F029691838083AD
:101DD0008A819B81938382832115310529F4F093B5
:101DE000EF02E093EE023DC0E901FB83EA834991F3
:101DF0005991C40FD51FEC17FD0761F480819181C3
:101E0000840F951F0296E9019983888382819381CB
:101E10009B838A83E0E0F0E012968D919C9113976A
:101E2000009719F0FD01DC01F7CF8D919C9111977E
:101E30009D012E5F3F4F820F931F2091EC02309146
:101E4000ED022817390769F4309729F41092EF0250
:101E50001092EE0202C013821282B093ED02A093A0
:101E6000EC02DF91CF910895A0E0B0E0EAE3FFE05B
:101E70000C94650CEC01009721F4CB010E94130E29
:101E8000B4C0FC01E60FF71F9C0122503109E21794
:101E9000F30708F4A8C0D9010D911C9111970617FA
:101EA0001707B0F00530110508F49BC0C80104976E
:101EB0008617970708F495C002501109061B170BE7
:101EC000019311936D937C93CF010E94AB0E89C057
:101ED0005B01A01AB10A4C01800E911EA091EE0286
:101EE000B091EF02612C712CE12CF12C109709F4C8
:101EF00046C08D919C911197A815B905B1F56C015B
:101F000042E0C40ED11CCA14DB0478F14C018A18DB
:101F10009B08640142E0C40ED11C1296BC9012973B
:101F20001396AC91B5E0CB16D10440F0B282A383F6
:101F300091828082D9016D937C9309C00E5F1F4FFF
:101F4000800F911FF90191838083EB2DFA2FE1140B
:101F5000F10431F0D7011396FC93EE93129741C030
:101F6000F093EF02E093EE023CC06816790608F4A5
:101F70003C017D0112960D90BC91A02DB7CF8091B0
:101F8000EC029091ED0288169906E1F46616770648
:101F9000C8F48091000190910101009741F48DB740
:101FA0009EB74091040150910501841B950BE817E1
:101FB000F907C8F4F093ED02E093EC02F9017183A4
:101FC00060830FC0CB010E94130E7C01009759F073
:101FD000A801BE010E94FF0FCE010E94AB0EC701F7
:101FE00004C0CE0102C080E090E0CDB7DEB7EEE0E5
:101FF0000C94810C81E090E0F8940C940F10FB019C
:10200000DC0102C001900D9241505040D8F7089574
:10201000FB01DC0101900D920020E1F70895F89496
:02202000FFCFF0
:102022000000F002800012001200140014001400DC
:1020320014000F000F000000000000000000C4FFA9
:102042003C00E2FF1E000000000000000000DB0F69
:10205200C93FDB0FC93FE4CB9640E4CB964000007A
:102062000000000000000F000F001900190014000A
:1020720014000F000F00DB0F4940DB0F4940DB0F5C
:10208200C93FDB0FC93FDB0FC93FDB0FC93F000070
:102092000000000000000F000F000A001E001400E4
:1020A20014000F000F000F000F001E000A001400A2
:1020B20014000F000F0019001900000000000000BA
:1020C200000023002300E7FF190000000000C4FF06
:1020D2003C000000000000000000DB0F494000004F
:1020E20000000000000000000000000000000000EE
:1020F2000000DB0F4940000000003301A000CA00CD
:102102008001FB00D900ED00010204030506080767
:102112000A095374617274696E67206B6F62756B22
:102122006920736F667477617265004563686F201A
:0A21320076616C756520000D0A004F
:00000001FF
